{"abi":[{"type":"function","name":"ListOfPeople","inputs":[{"name":"","type":"uint256","internalType":"uint256"}],"outputs":[{"name":"Fno","type":"uint256","internalType":"uint256"},{"name":"name","type":"string","internalType":"string"}],"stateMutability":"view"},{"type":"function","name":"Retrieve","inputs":[],"outputs":[{"name":"","type":"uint256","internalType":"uint256"}],"stateMutability":"view"},{"type":"function","name":"addpeople","inputs":[{"name":"_name","type":"string","internalType":"string"},{"name":"_fno","type":"uint256","internalType":"uint256"}],"outputs":[],"stateMutability":"nonpayable"},{"type":"function","name":"store","inputs":[{"name":"_Fno","type":"uint256","internalType":"uint256"}],"outputs":[],"stateMutability":"nonpayable"}],"bytecode":{"object":"0x6080604052348015600e575f80fd5b506104c88061001c5f395ff3fe608060405234801561000f575f80fd5b506004361061004a575f3560e01c80632a2272621461004e578063472c40b4146100635780636057361d1461008d578063d39afe6d146100a0575b5f80fd5b61006161005c366004610227565b6100b0565b005b6100766100713660046102dc565b61014f565b6040516100849291906102f3565b60405180910390f35b61006161009b3660046102dc565b610203565b5f54604051908152602001610084565b60408051808201909152818152602081018381526001805480820182555f91909152825160029091027fb10e2d527612073b26eecdfd717e6a320cf44b4afac2b0732d9fcbe2b7fa0cf68101918255915190917fb10e2d527612073b26eecdfd717e6a320cf44b4afac2b0732d9fcbe2b7fa0cf7019061013090826103b2565b5050505f81815260026020526040902061014a83826103b2565b505050565b6001818154811061015e575f80fd5b5f91825260209091206002909102018054600182018054919350906101829061032f565b80601f01602080910402602001604051908101604052809291908181526020018280546101ae9061032f565b80156101f95780601f106101d0576101008083540402835291602001916101f9565b820191905f5260205f20905b8154815290600101906020018083116101dc57829003601f168201915b5050505050905082565b61020e81600161046d565b5f5550565b634e487b7160e01b5f52604160045260245ffd5b5f8060408385031215610238575f80fd5b823567ffffffffffffffff81111561024e575f80fd5b8301601f8101851361025e575f80fd5b803567ffffffffffffffff81111561027857610278610213565b604051601f8201601f19908116603f0116810167ffffffffffffffff811182821017156102a7576102a7610213565b6040528181528282016020018710156102be575f80fd5b816020840160208301375f6020928201830152969401359450505050565b5f602082840312156102ec575f80fd5b5035919050565b828152604060208201525f82518060408401528060208501606085015e5f606082850101526060601f19601f8301168401019150509392505050565b600181811c9082168061034357607f821691505b60208210810361036157634e487b7160e01b5f52602260045260245ffd5b50919050565b601f82111561014a57805f5260205f20601f840160051c8101602085101561038c5750805b601f840160051c820191505b818110156103ab575f8155600101610398565b5050505050565b815167ffffffffffffffff8111156103cc576103cc610213565b6103e0816103da845461032f565b84610367565b6020601f821160018114610412575f83156103fb5750848201515b5f19600385901b1c1916600184901b1784556103ab565b5f84815260208120601f198516915b828110156104415787850151825560209485019460019092019101610421565b508482101561045e57868401515f19600387901b60f8161c191681555b50505050600190811b01905550565b8082018082111561048c57634e487b7160e01b5f52601160045260245ffd5b9291505056fea26469706673582212209fed0e70f93306d1c4e9b1e929c5921c5577c482e252dee5ae2f5840ad69db0c64736f6c634300081a0033","linkReferences":{}},"methodIdentifiers":{"ListOfPeople(uint256)":"472c40b4","Retrieve()":"d39afe6d","addpeople(string,uint256)":"2a227262","store(uint256)":"6057361d"},"id":0}